{
  "contractName": "Intermediar",
  "abi": [
    {
      "constant": false,
      "inputs": [
        {
          "name": "hash",
          "type": "string"
        },
        {
          "name": "reciver",
          "type": "address"
        },
        {
          "name": "ttl",
          "type": "uint256"
        }
      ],
      "name": "rent",
      "outputs": [
        {
          "name": "",
          "type": "string"
        }
      ],
      "payable": false,
      "stateMutability": "nonpayable",
      "type": "function"
    },
    {
      "constant": false,
      "inputs": [
        {
          "name": "hashedHash",
          "type": "string"
        }
      ],
      "name": "request",
      "outputs": [
        {
          "name": "",
          "type": "string"
        }
      ],
      "payable": false,
      "stateMutability": "nonpayable",
      "type": "function"
    }
  ],
  "bytecode": "0x608060405234801561001057600080fd5b50610782806100206000396000f3fe60806040526004361061004b5763ffffffff7c01000000000000000000000000000000000000000000000000000000006000350416632c1998898114610050578063e73ded5b14610178575b600080fd5b34801561005c57600080fd5b506101036004803603602081101561007357600080fd5b81019060208101813564010000000081111561008e57600080fd5b8201836020820111156100a057600080fd5b803590602001918460018302840111640100000000831117156100c257600080fd5b91908080601f016020809104026020016040519081016040528093929190818152602001838380828437600092019190915250929550610246945050505050565b6040805160208082528351818301528351919283929083019185019080838360005b8381101561013d578181015183820152602001610125565b50505050905090810190601f16801561016a5780820380516001836020036101000a031916815260200191505b509250505060405180910390f35b34801561018457600080fd5b506101036004803603606081101561019b57600080fd5b8101906020810181356401000000008111156101b657600080fd5b8201836020820111156101c857600080fd5b803590602001918460018302840111640100000000831117156101ea57600080fd5b91908080601f0160208091040260200160405190810160405280939291908181526020018383808284376000920191909152509295505073ffffffffffffffffffffffffffffffffffffffff833516935050506020013561046f565b6060806001836040518082805190602001908083835b6020831061027b5780518252601f19909201916020918201910161025c565b518151600019602094850361010090810a820192831692199390931691909117909252949092019687526040805197889003820188208054601f600260018316159098029095011695909504928301829004820288018201905281875292945092505083018282801561032f5780601f106103045761010080835404028352916020019161032f565b820191906000526020600020905b81548152906001019060200180831161031257829003601f168201915b50505050509050600080826040518082805190602001908083835b602083106103695780518252601f19909201916020918201910161034a565b51815160209384036101000a60001901801990921691161790529201948552506040805194859003820190942033600090815291529290922054929092111591506104339050576000816040518082805190602001908083835b602083106103e25780518252601f1990920191602091820191016103c3565b51815160001960209485036101000a8101918216911992909216179091529390910195865260408051968790038201909620336000908152915294909420805490910190555091925061046a915050565b505060408051808201909152600281527f2d3100000000000000000000000000000000000000000000000000000000000060208201525b919050565b606080610503856040516020018080602001828103825283818151815260200191508051906020019080838360005b838110156104b657818101518382015260200161049e565b50505050905090810190601f1680156104e35780820380516001836020036101000a031916815260200191505b50925050506040516020818303038152906040528051906020012061060f565b9050846001826040518082805190602001908083835b602083106105385780518252601f199092019160209182019101610519565b51815160209384036101000a6000190180199092169116179052920194855250604051938490038101909320845161057995919491909101925090506106bb565b50826000866040518082805190602001908083835b602083106105ad5780518252601f19909201916020918201910161058e565b51815160209384036101000a60001901801990921691161790529201948552506040805194859003820190942073ffffffffffffffffffffffffffffffffffffffff999099166000908152989052505090942080549094019093559392505050565b60408051602080825281830190925260609182919060208201818038833901905050905060005b60208110156106b45783816020811061064b57fe5b1a7f010000000000000000000000000000000000000000000000000000000000000002828281518110151561067c57fe5b9060200101907effffffffffffffffffffffffffffffffffffffffffffffffffffffffffffff1916908160001a905350600101610636565b5092915050565b828054600181600116156101000203166002900490600052602060002090601f016020900481019282601f106106fc57805160ff1916838001178555610729565b82800160010185558215610729579182015b8281111561072957825182559160200191906001019061070e565b50610735929150610739565b5090565b61075391905b80821115610735576000815560010161073f565b9056fea165627a7a72305820d1299b7043ecd533aced9dd44cb981ebb9f41429634728f926b47b7b6f2d525a0029",
  "source": "pragma solidity >=0.4.22 <0.7.0;\n\ncontract Intermediar {\n\tmapping (string => mapping(address => uint)) rentBook;\n\tmapping (string => string) hashMap;\n\n\tfunction rent (string memory hash, address reciver, uint ttl) public returns(string memory){\n\t\tstring memory hashedHash = _bytes32ToStr(keccak256(abi.encode(hash)));\n\t\thashMap[hashedHash] = hash;\n\t\trentBook[hash][reciver]+=ttl;\t\t\n\t}\n\n\tfunction request (string memory hashedHash) public returns(string memory) {\n\t\tstring memory hash = hashMap[hashedHash];\n\t\tif(rentBook[hash][msg.sender] > 0){\n\t\t\trentBook[hash][msg.sender]--;\n\t\t\treturn hash;\n\t\t}\n\t\telse{\n\t\t\treturn \"-1\";\n\t\t}\n\t}\n\n\tfunction _bytes32ToStr(bytes32 _bytes32) private returns (string memory) {\n\n\t    bytes memory bytesArray = new bytes(32);\n\t    for (uint256 i; i < 32; i++) {\n\t        bytesArray[i] = _bytes32[i];\n\t        }\n\t    return string(bytesArray);\n    }\n\t\n}\n",
  "sourcePath": "C:/Users/kashy/Desktop/New Hack/Intermediary/contracts/Intermediary.sol",
  "compiler": {
    "name": "solc",
    "version": "0.5.0+commit.1d4f565a.Emscripten.clang"
  },
  "schemaVersion": "3.0.1",
  "updatedAt": "2020-02-16T00:09:31.186Z",
  "devdoc": {
    "methods": {}
  },
  "userdoc": {
    "methods": {}
  }
}